:100000000C944D030C946A030C946A030C94862D93
:100010000C946A030C946A030C946A030C946A03AC
:100020000C946A030C946A030C943D140C945E18AF
:100030000C946A250C946A030C946A030C946A036A
:100040000C946A030C946A030C946A030C946A037C
:100050000C946A030C9416150C946A030C946A03AE
:100060000C946A030C946A030C946A030C946A035C
:100070000C946A030C946A030C946A030C946A034C
:100080000C946A030C946A030C946A030C946A033C
:100090000C946A030C946A030C946A030C946A032C
:1000A0000C946A030C946A030C946A030501090218
:1000B000A10185020901A1000509190129081500FE
:1000C0002501950875018102050109300931158165
:1000D000257F95027508810609381581257F9501D0
:1000E00075088106050C0A38021581257F95017572
:1000F000088106C0C005010980A101850319012AF4
:10010000B700150126B700950175108100C0050CD8
:100110000901A101850419012AA002150126A002E6
:10012000950175108100C005010906A1018506052C
:100130000719E029E71500250195087501810205D9
:1001400007190029EF1500250195F07501810205B9
:10015000081901290595057501910295017503910D
:1001600001C00660FF0961A1010962150026FF00B8
:100170009520750881020963150026FF00952075FA
:10018000089102C005010906A101050719E029E748
:1001900015002501950875018102950175088101F9
:1001A0000507190029FF150026FF0095067508812F
:1001B000000508190129059505750191029501753C
:1001C000039101C0000101010101010101010202CD
:1001D00002020202020202030303030303030304F5
:1001E00004040404040405050505050606060606C0
:1001F000070707070708080808090909090A0A0A7A
:100200000B0B0B0C0C0C0D0D0D0E0E0E0F0F0F101B
:1002100010111111121213131414151516161717A5
:10022000181819191A1A1B1B1C1D1D1E1E1F202011
:10023000212222232424252626272829292A2B2C5B
:100240002D2D2E2F30313232333435363738393A7E
:100250003B3C3D3E3F404142434445464748494A76
:100260004C4D4E4F50515354555658595A5B5D5E44
:100270005F616264656668696B6C6D6F70727375DF
:1002800077787A7B7D7E8082838587888A8C8E8F43
:1002900091939596989A9C9EA0A2A3A5A7A9ABAD71
:1002A000AFB1B3B5B7BABCBEC0C2C4C6C9CBCDCF5F
:1002B000D1D4D6D8DBDDDFE2E4E7E9EBEEF0F3F50D
:1002C000F8FAFDFF00000000000000000000000040
:1002D000000000000000000000000000000000001E
:1002E00000000000000000007E0F00D4FFFFFFC7E9
:1002F0000000007800000000000000002A2B280009
:1003000000000000000000000000000000000029C4
:10031000000000002C1E3420212224342627252E04
:10032000362D3738271E1F2021222324252633333C
:10033000362E37381F0405060708090A0B0C0D0E68
:100340000F101112131415161718191A1B1C1D2F34
:100350003130232D350405060708090A0B0C0D0E54
:100360000F101112131415161718191A1B1C1D2F14
:100370003130354C7F3F1F643214643214783C1E98
:100380001E140A05FFAA7F55402223252628292A64
:100390002C2D2F3032333536383A3B3D3E404243E8
:1003A0004547494A4C4E5051535557595A5C5E6027
:1003B00062646668696B6D6F71737577797B7D7F39
:1003C00081838587898A8C8E90929496989A9C9E38
:1003D0009FA1A3A5A7A8AAACAEAFB1B3B4B6B8B954
:1003E000BBBCBEBFC1C2C3C5C6C7C9CACBCCCDCEBC
:1003F000D0D1D2D2D3D4D5D6D7D7D8D9D9DADADB9F
:10040000DBDBDCDCDCDCDCDDDDDDDDDCDCDCDCDC2A
:10041000DBDBDBDADAD9D9D8D7D7D6D5D4D3D2D269
:10042000D1D0CECDCCCBCAC9C7C6C5C3C2C1BFBE51
:10043000BCBBB9B8B6B4B3B1AFAEACAAA8A7A5A3BC
:10044000A19F9E9C9A98969492908E8C8A8987857B
:1004500083817F7D7B79777573716F6D6B6968665A
:100460006462605E5C5A5957555351504E4C4A492C
:1004700047454342403E3D3B3A3836353332302FD4
:100480002D2C2A2928262523222B0014001A0008A7
:100490000015001700E00004001600070009000A1C
:1004A00000E1001D001B000600190005000000000F
:1004B000000000E300777C2C002A00130012000CDF
:1004C0000018001C00340033000F000E000D000B5C
:1004D000002900380037003600100011000000002D
:1004E000000000E600787C28002B001E001F002082
:1004F0000021002200E000000000000000000000D9
:1005000000E100000000000000000000000000000A
:10051000000000E30001002C002A0027002600252F
:100520000024002300000000004F00520051005042
:1005300000000000000000000000000000000000BB
:10054000000000E600010028002B001E021F022010
:100550000221022202E00000000000000000000072
:1005600000E10000000000000000000000000000AA
:10057000000000E30001002C002A002702260225CB
:1005800002240223023500310030002F002E002DFE
:10059000003502310230022F022E022D020000002F
:1005A000000000E60001002800007C0000000000C0
:1005B00000000000002078237825782778000000CC
:1005C00000217824782678287800000000000000B8
:1005D000000000E30001002C00000000000000000B
:1005E000000000000000000000000000000000000B
:1005F00000000000000000000000000000000000FB
:10060000000000E6000100280009025B0003010071
:10061000A0FA0904000001030101000921110100F1
:1006200001224000070581030800010904010002BE
:1006300003000000092111010001222200070582A8
:100640000320000107050303200001090402000143
:100650000300000009211101000122B600070584F2
:1006600003200001120100020000000853460100AF
:100670000100010200010C0343006F0072006E00D4
:1006800065000000100366006F006F0073007400C7
:1006900061006E0000000403090411241FBECFEFA7
:1006A000DAE0DEBFCDBF11E0A0E0B1E0EAE2F1E6C2
:1006B00002C005900D92AA3BB107D9F723E0AAEB3F
:1006C000B1E001C01D92A63CB207E1F70E9491255E
:1006D0000C942C300C940000482F2091C203909170
:1006E000890357E0291302C080E0089530E0529F4B
:1006F000F001539FF00D1124E657FC4F81816813E0
:1007000006C08081481303C085818111EECF2F5F21
:100710003F4F2770E7CFFC01AC014C5F5F4F8FEF7D
:1007200091E32191822728E030E087FF09C0880FFC
:10073000892721503109C9F7E417F50791F7089582
:10074000880FF7CFE8EDF0E080818E7F80831092F4
:10075000E2001092DA001092E100A0EEB0E08C917D
:1007600081608C9380818F77808319BCA7EDB0E086
:100770008C918E7F8C9380818F7E808310925A0320
:1007800008952091E4003091E50095E6A9012091BB
:10079000EC00822F817020FF06C08091E80080FF6E
:1007A00006C080E008952091E80022FD1AC08091E3
:1007B0007F03882389F0853089F08091EB0085FDE7
:1007C0000FC02091E4003091E50042175307F9F281
:1007D0009150E1F684E0089582E0089583E0089561
:1007E00081E008958091810387FF13C08091E80024
:1007F00082FF06C08091E8008B778093E80004C0F8
:1008000080917F038111F2CF089580917F03882327
:10081000D9F38091E80080FFF8CF8091E8008E77CF
:10082000ECCF982F9093E900242F762F50E0891772
:1008300031F07091EC002091ED005091F00021FD1D
:1008400007C09F5F973071F78093E90081E00895BA
:100850003091EB003E7F3093EB003091ED003D7F17
:100860003093ED003091EB0031603093EB007093EA
:10087000EC002093ED005093F0002091EE0027FD56
:10088000E0CF80E00895B0E0A0E0E9E4F4E00C946B
:10089000C02EC8EDD0E088818F7E8883E7EDF0E040
:1008A00080818160808384E082BF81E080935A03ED
:1008B00088818E7F888302EE10E0F801108210920A
:1008C000DA0081EEC82ED12CF601108288818F7754
:1008D000888388818068888388818F7D888319BC1C
:1008E00010927F031092800310927E0310927D037A
:1008F00090EEE92EF12CF70180818B7F8083888137
:100900008160888342E060E080E00E941104F6018B
:1009100080818E7F8083F8018081816080838081E7
:1009200088608083F70180818E7F808388818061E9
:100930008883CDB7DEB7E8E00C94DC2EFC01809113
:1009400087039091880386179707A0F061157105BA
:1009500029F49091E8009E779093E80090E061156B
:10096000710551F4911108C08091E80082FF34C0F4
:1009700080E00895BC01F2CF80917F038823C1F10C
:100980008530C1F18091E80083FD30C08091E8009E
:1009900082FDEACF8091E80080FFE1CF8091F300F3
:1009A0002091F200382F6115710519F028303105BA
:1009B00058F091E02830310509F090E02091E800EE
:1009C0002E772093E800CBCF81918093F100615086
:1009D00071092F5F3F4FE7CF80917F03882341F05C
:1009E000853041F08091E80083FFBECF81E008951B
:1009F00082E0089583E0089580915C03089587E77D
:100A000097E7909301088093000888E19AE00FB679
:100A1000F894A895809360000FBE90936000FFCF7C
:100A20002FB7F89460915403709155038091560349
:100A3000909157032FBF0895209141012223C9F0BF
:100A40002091580327FF15C0E62FE695E695E69519
:100A5000EE31D8F4E80FF92FF11D677021E030E096
:100A600001C0220F6A95EAF720958281282322830C
:100A70000895FC01329608962191621303C0DF01AC
:100A800011971C92E817F907B9F7089520914101D1
:100A90002223C1F02091580327FF14C0E62FE695CA
:100AA000E695E695EE31F8F4E80FF92FF11D677041
:100AB00021E030E001C0220F6A95EAF78281822BA3
:100AC00082830895FC0132962FEF30E04191641744
:100AD00051F02F3F19F4411101C0232F3F5F3630F1
:100AE000A9F72F3F09F40895820F911D27FD9A95CC
:100AF000FC0162830895A3E0B0E0E1E8F5E00C9426
:100B0000C62E209151033091520328173907A1F0C6
:100B10009093520380935103E0914F03F09150035F
:100B2000309751F024E029839B838A830680F781E4
:100B3000E02DCE01019609952396E2E00C94E22E79
:100B4000A3E0B0E0E6EAF5E00C94C62E20914D0358
:100B500030914E0328173907A1F090934E038093EC
:100B60004D03E0914F03F0915003309751F023E093
:100B700029839B838A830680F781E02DCE0101962D
:100B800009952396E2E00C94E22EE0914F03F09158
:100B90005003309739F022E0DC012C930480F5817A
:100BA000E02D09950895FA01811101C0FB01099515
:100BB00008950895EEE9F2E01182828184608283D3
:100BC000089580914503982F9E7F61F48170826023
:100BD0008093450380914803893718F088E7809314
:100BE000480308958634B0F381708464F1CF809116
:100BF000790280FD16C081FD16C082FD16C080916D
:100C000078028823A1F0883280F428E0829FC00116
:100C1000112468E270E00E94FB2E862F672B39F0CA
:100C2000089582E0089584E0089588E0089581E0C1
:100C300008958091790280FD14C081FD14C082FD69
:100C400016C080917702882381F08E3180F420E5F0
:100C5000829FC00111246EE170E00E94FB2E862F5E
:100C6000089584E1089588E2089588E0089580E574
:100C7000089580E00895F894E82FE295EF70F0E091
:100C800031A1282F2F7081E090E001C0880F2A95B4
:100C9000EAF7982F9095932391A392A1892B82A391
:100CA000789408959091580392FF06C0282F2871D8
:100CB0002830F9F4877F846093FF06C0282F2871BD
:100CC0002831F1F4877E84612091590320FF06C00A
:100CD000382F38713830D9F4877F816021FF06C002
:100CE000282F28712831D1F4877E816194FD877E79
:100CF0000895282F24712430F9F68B7F8860DCCF8B
:100D0000282F2471243101F78B7E8861DDCF382FA5
:100D10003171313019F78E7F8860E0CF282F217133
:100D2000213121F78E7E8861E1CF82389105B9F1BA
:100D3000B0F48133910509F47DC048F489329105FE
:100D400009F46DC08A32910509F47BC0089585339A
:100D5000910509F45FC08933910509F10895833E37
:100D60009105D9F138F4803E910529F1823E910533
:100D700079F10895863E9105D9F1873E910509F4F0
:100D80003EC0843E910541F52091590321FF24C0C6
:100D90008091580384FD19C087EE90E0089520915A
:100DA0005803237009F05AC02091590323FF14C03F
:100DB00089E290E008952091580320FD38C03091D9
:100DC000590330FF09C024FF43C090E080E008953C
:100DD0002091580322FDF7CF08952091580322FD5A
:100DE0003AC03091590330FD39C024FFF5CFEDCF23
:100DF0002091580323FFF0CF24FDE7CFCDCF2091E2
:100E0000580323FD2EC03091590331FFEECF84EEFD
:100E100090E008952091580325FFDECFC9CF20919F
:100E2000580325FD21C02091590323FFD5CF89E325
:100E300090E0D2CF2091580326FFCECF8AE290E0F7
:100E400008952091580326FFC7CF81E390E00895CD
:100E500083EE90E0089582EE90E0089580EE90E0B9
:100E6000089586EE90E0089585E390E008951F933D
:100E7000CF93DF930E949506EC01C11580E5D8075A
:100E8000F0F5C11580E4D80708F09CC0C03ED1053C
:100E900020F5CD3CD10508F082C0C83AD10578F4E0
:100EA000C53AD10508F073C0C130D10519F12097BA
:100EB00009F1C430D105F0F4D0E0C0E01BC0C33C60
:100EC000D105D0F7C85AD0E0CC0FDD1FCB5BDE4F89
:100ED0000990D881C02DD4640DC0C11580E2D80717
:100EE00008F0D1C0C11581E0D80708F05AC0C83E4B
:100EF000D10510F7CE01DF91CF911F910895C03633
:100F000082E5D80718F5C03482E5D80708F06BC031
:100F1000C03282E5D80708F05FC0C11582E5D80766
:100F200008F497C02C2F2695269580E2289F9001E3
:100F300011248C2F8370C1E0D0E002C0CC0FDD1FE4
:100F40008A95E2F7C22BD32BDD68D4CFC03A82E575
:100F5000D80760F4C03882E5D80708F459C0CF71CB
:100F6000D0E0DC2FCC27C46FD06AC4CFC03C82E570
:100F7000D80708F462C0C03E82E5D80708F09CCFCD
:100F8000DC2FCC27CC27DF71C06FD06AB3CFC55A16
:100F9000D0E0CE5BDE4FC881D0E0D064ABCFD0656F
:100FA000A9CF8D2F0E945206182FCE0199270E949B
:100FB0009506C12FD0E0DC2FCC27CC27DF71C82BC2
:100FC000D92B98CFCE0199270E949506CC27DF70A8
:100FD000C82BD92BD06A8ECFCF71D0E0DC2FCC2795
:100FE000C16FD06A87CF2C2F26952695277080E277
:100FF000289F900111248C2F8370C1E0D0E002C0A3
:10100000CC0FDD1F8A95E2F7C22BD32BDC6872CFA1
:101010002C2F26952695277080E2289F9001112479
:101020008C2F8370C1E0D0E002C0CC0FDD1F8A9509
:10103000E2F7C22BD32BDA685DCF8C2F8F710E9421
:101040005206C82FD0E0DC2FCC27CC27DF71D0622E
:1010500051CF8C2F8F710E94520655E0D695C795BF
:101060005A95E1F7CF70D0E0DC2FCC27282F30E065
:1010700084FF05C044E0220F331F4A95E1F7C22BDD
:10108000D32BD06937CF8D2F8F710E945206182F26
:10109000CE0199270E949506C12FD0E0DC2FCC27E6
:1010A000CC27DF71C82BD92BD2CF809590911A0213
:1010B000982390931A0208958091C2039091890316
:1010C000981301C008958F5F8770FACF292F983049
:1010D00078F5863068F590E036E0239F800D911D0D
:1010E0001124682F677023E0969587952A95E1F77C
:1010F000FC01EE0FFF1FE80FF91FE252FE4F50E018
:1011000040E080E0219130E0062E02C03695279520
:101110000A94E2F721703327042E01C0220F0A94AB
:10112000EAF7822B4F5F5F4F4330510559F708951F
:1011300080E00895292F983098F5863088F590E062
:1011400036E0239F800D911D1124282F277041E048
:1011500001C0440F2A95EAF723E0969587952A95D2
:10116000E1F7FC01EE0FFF1FE80FF91FE252FE4FFF
:1011700030E020E070E05191DF011197CB01022EA9
:1011800002C0969587950A94E2F78170819585272C
:10119000842385278C932F5F3F4F2330310559F7E8
:1011A000089580935C02089590915C0221E030E004
:1011B000F90101C0EE0F8A95EAF7D90102C0AA0F22
:1011C000BB1F6A95E2F7EA2B01C0220F4A95EAF7A6
:1011D000892F8E23E81305C0292B822F0E94D10866
:1011E000089520952923F9CF21E030E001C0220F96
:1011F0008A95EAF7209580915C0282230E94D108AB
:1012000008959091F701809589238093F701282F05
:10121000277069F4891759F09091590392FF07C01C
:101220008695869586950E94F4081092F701089598
:1012300021E030E001C0220F8A95EAF780915C023C
:10124000822B0E94D108089580931B020895AF92CB
:10125000BF92CF92DF92FF920F931F93CF93DF93B2
:10126000362F472FE82FF0E0EC53FE4F71110FC0DF
:10127000E4918E2F2E2F6E2F722FDF91CF911F9121
:101280000F91FF90DF90CF90BF90AF900895C72F40
:10129000D0E02491F22E022F10E056E0659FC001AD
:1012A0001124EFEFF0E0BF010E94A22E832F90E007
:1012B000880F991F35E5369FD001379FB00D112457
:1012C0008A1B9B0B982F990F980F6F01CC1ADD0A80
:1012D000C09ED001C19EB00DD09EB00D11248B2FA9
:1012E000499FA0011124452F55276F01C41AD50A23
:1012F000C09EA001C19E500DD09E500D11245F01D3
:10130000A91AB108AC9E6001AD9ED00CBC9ED00C59
:101310001124CD2CDD24EC19FD09E09FE001E19FB3
:10132000D00DF09FD00D1124ED2F62307105A1F08A
:1013300050F46115710509F49ECF6130710581F09B
:10134000EB2F852F98CF6430710569F080F06630FF
:10135000710509F490CFF4CFE22F2B2F8D2F8BCF77
:10136000E22F252F88CFEB2F822F2D2F84CF2B2FED
:101370008F2DE52F80CFCF93DF93762FE901682F54
:10138000842F0E942709798368838A83DF91CF9114
:1013900008950F931F93CF93DF938B01EA019091F0
:1013A0007F03943061F58093E9008FEF9091E8001E
:1013B000815095FD06C095ED9A95F1F700008111D9
:1013C000F5CF8091E80085FF1AC00E94C10381110A
:1013D00011C08091E80085FD06C08091E8008E77FD
:1013E0008093E800F2CFF80181918F018093F100A2
:1013F000219779F78091E8008E778093E800DF915C
:10140000CF911F910F91089543E050E0BC0184E01B
:101410000E94C909089546E050E0BC0184E00E94A2
:10142000C9090895CF93DF93EC01809141018111A7
:1014300011C048E050E0BE0181E00E94C90980E28D
:10144000FE01ADE5B3E001900D928A95E1F7DF91E1
:10145000CF9108958091580387FF05C040E284E052
:1014600050E0BE01EACF48E081E0FACF60913D0153
:101470008091450380FF20C080913C0143E0849F20
:10148000C00111248D559D4F539A2BB1277F3BB13D
:1014900038605FB7F894FC01649FE00DF11D1124E2
:1014A000BF0168177907D1F45FBF8FE594E001971A
:1014B000F1F700C00000089580913E0190913F0136
:1014C00023E0829FF0011124ED55FD4F8917A0F60E
:1014D0001182108212828F5F3396F8CFFC01419106
:1014E000CF01E8E03BB9000000C047FF2BB9440F33
:1014F000000000C000C000C02BB900C0EA9591F701
:10150000D0CFB0E0A0E0E7E8FAE00C94BC2EEC010C
:101510004C81042F10E09801D8010E94462F9B01B6
:10152000AC010E945C2F4B015C01E0E2F0E0E01BAB
:10153000F10BA5E5B0E0AC019B010E945C2F6B01B3
:101540007C019F01DF010E943E2F9B01AC010E94A4
:10155000672F9B01AC01280D391D4A1D5B1DC7017A
:10156000B6010E940F2FF22E822F90E039E23F1534
:1015700020F143E0249F9001112435952795122FE7
:10158000109500E085E5E82EEF18809140010817DE
:1015900018F10E94360A9C8181E0992319F090325B
:1015A00019F48FEF80933B0180913B01890F8C836D
:1015B000CDB7DEB7ECE00C94D82E25E530E0B901CC
:1015C000681B790B9B01220F331F260F371F37FF34
:1015D000D4CF2F5F3F4FD1CF8E2D01FD8F2D209186
:1015E0003E01622F600F7727771F9B01220F331F69
:1015F000260F371F2D553D4F412F193708F048E76B
:10160000609147030E94BB090F5FBFCFEF92FF922B
:101610000F931F93CF93DF93EC018C81811109C04D
:1016200081E08C831092A20292E090933A01809321
:10163000390180913E0190913F0123E0829FF001AA
:101640001124ED55FD4F891758F110E003E060912A
:101650004001161758F10E94360A809139012091F5
:10166000A202280F2093A20290913A01980F909322
:101670003A01191654F4022E000C330B409140012C
:101680004150550B2417350734F08195809339016B
:10169000813009F41C82CDB7DEB7E6E00C94DE2E73
:1016A0001182108212828F5F3396CDCFE12EF12C02
:1016B00070E0C7010E94FB2E20913E01820F482F4F
:1016C00050E02091A202022E000C330BE216F3062A
:1016D000D4F020913A01022E000C330B2E153F0559
:1016E00094F0809F900111242D553D4F4091480367
:1016F000493708F048E760914703809146030E940C
:10170000BB091F5FA4CFFA01EE0FFF1FE40FF51F07
:10171000ED55FD4F118210821282F3CFB0E0A0E0B0
:10172000E4E9FBE00C94BC2EEC018A81BB24BA9462
:1017300080FD02C0BB24B394A09040018C81811134
:1017400009C081E0B81220C08FEF8A0D8093A102FA
:1017500081E08C83F12CE12C46E3842EEA14B8F06E
:101760000E94360A8091A10291E0B9125AC08111FB
:1017700053C08091400181508093A1021C82CDB75B
:10178000DEB7ECE00C94D82E1092A102E1CF0091CC
:101790003E010E0D1F2D111DC801880F991F080F46
:1017A000191F0D551D4FF80111821082128234E06D
:1017B000C32ED12C912C8091A102890D873344F145
:1017C000682D0E94ED2E892F082E000C990B8E1586
:1017D0009F05A9F4809148038C9DA0018D9D500D1B
:1017E00011245595479555954795493708F048E791
:1017F000980160914703809146030E94BB099B0CAE
:10180000F1E0CF1AD108B9F68FEFE81AF80AA6CF9F
:1018100087FFDACF8A0DD8CF81508093A102BC8296
:10182000AECF90E001966091400170E00E94FB2EE7
:101830008093A1028C83A3CFEF92FF921F93CF934B
:10184000DF93EC0110E0EE24EA94F12C609140016A
:10185000161770F00E94360A9A818C8190FF2AC078
:101860008F5F8C83DF91CF911F91FF90EF90089550
:1018700020913E01422F410F5527551FCA019A0161
:10188000220F331F280F391F2D553D4F409148031C
:10189000493708F048E770E0C7010E94FB2E962FF9
:1018A0008C8160914703199F800D11240E94BB0910
:1018B0001F5FCCCF8150D5CF9091450390FF0EC0D4
:1018C00090913E0120913F0133E0939FF00111245C
:1018D000ED55FD4F921718F00E94360A0895818346
:1018E000608342839F5F3396F5CFA3E0B0E0EBE7E0
:1018F000FCE00C94C62E9091450390FF0DC0493733
:1019000008F048E79E012F5F3F4F0E94BB094B81C3
:1019100069818A810E945C0C2396E2E00C94E22E9D
:10192000CF93DF93EC01E5E4F3E0438162818C81A6
:101930000E94750C8C818F5F8C83DF91CF9108950D
:10194000CF93DF93EC01EC81F0E0E757FC4F44913B
:10195000E5E4F3E0628181810E94750C8C818F5FE8
:101960008C83DF91CF910895E5E4F3E080818E7F51
:1019700080830E94DA05EEE9F2E082818160828351
:101980000E94360A0895B0E0A0E0E9ECFCE00C9477
:10199000BE2E7C015B016A0180914D0201E010E0E6
:1019A0008A3010F40AE010E0C1E0D0E0B501C701D0
:1019B000F6010995811104C021960C171D072CF41E
:1019C000CDB7DEB7EAE00C94DA2ECC9F9001CD9F24
:1019D000300D300D112490E080E045E34A95F1F799
:1019E0000000019682179307C1F7E0CF809128028B
:1019F000811110C08091D80080618093D8008AE165
:101A00008A95F1F700C08091D90080FF0AC081E07B
:101A10008093280281E090912802913009F080E0C3
:101A2000089582E0809328020E94A20310927F030F
:101A3000F1CF0E94F60C882359F0E0914F03F0910A
:101A40005003309729F00190F081E02D0995089519
:101A500080E008950F931F930E94F60C882329F0CD
:101A60000E9410051F910F9108950E94100500918A
:101A70004E0210914F022091500230915102600F9E
:101A8000711F821F931FEECFCF93DF93C9EAD1E07E
:101A900060E0CE010E94D52F2196C11584E0D807C1
:101AA000B9F7DF91CF9108951F93CF93DF93122F52
:101AB0008430E0F46830D0F44630C0F4C42FD0E075
:101AC000CC0FDD1F9CE0699FC00DD11D112490E655
:101AD000899FC00DD11D1124632FCE0189960E94CC
:101AE000D52F612FCE018A960E94D52FDF91CF91FD
:101AF0001F910895AF92BF92CF92DF92EF92FF9223
:101B00001F93CF93DF9389E8C82E84E0D82ED0E0CE
:101B10007601C0E014C0F50125913491412F6C2F5E
:101B20008D2F0E94540D82E0A80EB11C1F5F16304D
:101B300091F78CE0E80EF11CCF5FC83019F0570127
:101B400010E0E9CFDF5F80E6C80ED11CD43001F78A
:101B5000DF91CF911F91FF90EF90DF90CF90BF90DA
:101B6000AF900895CF93C82F6FEF811163E285E2A4
:101B700090E00E94D52F6FEFC11166E086E290E001
:101B80000E94D52F6FEFC11164E087E290E00E94C0
:101B9000D52FCF91089580E00E94B20D60E088E2D9
:101BA00090E00E94D52F0E947A0D0E94440D81E0A2
:101BB0000E94B20D08950F931F93CF93DF9384304B
:101BC00030F5683020F5463010F5C42FD0E0CC0F4A
:101BD000DD1F2CE0629FC00DD11D112430E6839FD4
:101BE000C00DD11D1124CE0189960E94B12F082F5E
:101BF00010E0102F0027CE018A960E94B12F980185
:101C0000282BC901DF91CF911F910F91089590E08A
:101C100080E0F8CF462F783040F4663030F48430DE
:101C200020F4672F0E94DB0D089590E080E0089576
:101C3000CF92DF92FF920F931F93CF93DF936C01AC
:101C400000915C0280911B02082BC3E0D0E010E001
:101C5000FC2EC8010C2E02C0959587950A94E2F7D8
:101C600080FD0CC02197A0F7F12C8F2DDF91CF9133
:101C70001F910F91FF90DF90CF900895B6018C2FA8
:101C80000E940A0E0E943707019761F3EECFCF93AF
:101C9000DF93EC010E94180EBE010E940A0E0E9402
:101CA0003707DF91CF910895FC0124812223C1F0F1
:101CB000808191810E94470E92959F70963091F09D
:101CC00058F4925F9F70923058F4803F19F030F4CE
:101CD000883E30F481E008959A5FF4CF843FD1F3D9
:101CE00080E00895883EB0F3813FD1F7F3CFA6E0BE
:101CF000B0E0EDE7FEE00C94C52E49835A8349819C
:101D00005A819923A1F0222391F0CA010E94180E52
:101D1000182F682F89819A810E949A0869817A8197
:101D2000812F0E940A0E2696E3E00C94E12ECA0150
:101D30000E946608182FF2CF85E290E00E94B12F32
:101D4000833289F486E290E00E94B12F863059F404
:101D500087E290E00E94B12F91E0843009F090E09A
:101D6000892F8170089580E0FCCFB0E0A0E0EBEB1C
:101D7000FEE00C94BC2E49015A016B017C010E94CB
:101D8000E1058401A4016A2D7B2D88E090E00E948A
:101D9000E72F94014A2D5B2DB601C70100E20E9496
:101DA0008A2F622F84E290E00E94D52FCDB7DEB754
:101DB000ECE00C94D82EA3E0B0E0E1EEFEE00C9451
:101DC000BF2EF82EE62E042FC22E9091450390FFD1
:101DD00044C020914603281308C08091470386130E
:101DE00004C080914803841729F08091A00282608A
:101DF0008093A002E92FE695AE2FB0E0A957BE4F21
:101E00008C9180939E029E7F923059F5402F093726
:101E100008F048E79E012F5F3F4F6E2D8F2D0E94E7
:101E2000BB094B8169818A810E945C0CF092460358
:101E3000E092470300934803CC2079F020914503BA
:101E40006091490370914A033F2D4E2D502F809190
:101E50004B0390914C030E94B50E2396E9E00C943D
:101E6000DB2E823019F400914803E0CF8630B9F1BF
:101E70008930A9F18931D1F6E9516E2F6170B62E02
:101E8000E695F0E0EC57FC4F1491D12C60914001A5
:101E9000D61618F00E94360AC9CFD19EC00111246F
:101EA00070E00E94A22E8F2DB11017C0860F2091D6
:101EB0003E01622F6D0D7727771F9B01220F331F85
:101EC000260F371F2D553D4F402F093708F048E7A3
:101ED0006E2D0E94BB09D394D9CF861BE8CFF22E7A
:101EE000A5CFE5E4F3E0438121E1421B08F440E0A3
:101EF00021E0628181810E94DB0E0895E5E4F3E038
:101F0000438121E1420F08F44FEF21E0628181819A
:101F10000E94DB0E0895E5E4F3E0628121E1621B9B
:101F200008F460E021E0438181810E94DB0E089586
:101F3000E5E4F3E0628121E1620F08F46FEF21E054
:101F4000438181810E94DB0E0895E5E4F3E0818105
:101F500021E0438162818A500E94DB0E0895E5E40E
:101F6000F3E0818121E043816281865F0E94DB0E84
:101F7000089580914903882319F081508093490383
:101F80002091450330914603409147035091480307
:101F90006091490370914A0380914B0390914C03E7
:101FA0000E94B50E089580914903833018F48F5F25
:101FB00080934903209145033091460340914703A4
:101FC000509148036091490370914A0380914B03FB
:101FD00090914C030E94B50E0895E5E4F3E083E090
:101FE000808311828FEF828388E783831482AEE936
:101FF000B2E012968C911297836012968C93758141
:1020000023E030E04FEF58E760E0868197810E943F
:10201000B50E0895A4E0B0E0E0E1F0E10C94C42E28
:102020000E94902B19821A821B821C8204E610E007
:1020300024E030E0AE014F5F5F4F60E084E10E943A
:10204000762C2496E4E00C94E02EA1E1B0E0EBE2E3
:10205000F0E10C94C12E4C87888B998BE52ED62EFF
:10206000F72EAE01495F5F4F85E0FA0111928A9524
:10207000E9F7809197028A3008F083C004E610E007
:1020800025E030E064E084E10E949D2C892B09F07A
:10209000C7C0109297028B8587FDBDC0E894E0F819
:1020A0008091950290919602009709F0AEC08F81C1
:1020B0009885891708F07DC0981B892F41E02091F1
:1020C0002C0130912D01889FC001112455E0589FAB
:1020D000F001599FF00D1124E29FB001E39F700DB4
:1020E000F29F700D1124660F672F661F770B719595
:1020F000442319F071956195710980919302909133
:102100009402680F791F89859A85891708F054C051
:10211000981B892F41E0889FC001112455E0589FEA
:10212000F001599FF00D1124E29FC001E39F900D33
:10213000F29F900D1124880F892F881F990B91957C
:10214000442319F091958195910920919102309144
:102150009202820F931F603871058CF16F577109DD
:1021600070939402609393023FE7D32E80389105D9
:10217000CCF18F57910990939202809391029FE73F
:10218000F92EED86DE86FF8686E0FE013C96DE01B6
:10219000119601900D928A95E1F729813A814B8140
:1021A0005C816D817E8180E090E06196E7E00C9437
:1021B000DD2E891B40E083CF891B40E0ACCF603827
:1021C000FFEF7F074CF461587F4F70939402609348
:1021D000930220E8D22ECACFD62E109294021092EB
:1021E0009302C4CF80382FEF92074CF481589F4F51
:1021F000909392028093910280E8F82EC2CFF82E3D
:102200001092920210929102BCCF01979093960285
:1022100080939502B6CF6894E0F884E190E0F6CF21
:10222000809197028F5F80939702ABCFCF93DF931C
:1022300046E050E06EE772E08BE892E00E941630D4
:10224000EC01892B21F08BE892E00E94C50590916A
:102250008C0286E0EBE8F2E0DF01282F1D922A9540
:10226000E9F790938C02AEE7B2E001900D928A9567
:10227000E1F781E0CD2B19F4911101C080E081706C
:10228000DF91CF910895AEE1B0E0E9E4F1E10C9483
:10229000C62E40918B0250918C0260918D027091FC
:1022A0008E0280918F02909190020E9425102093BF
:1022B0008B0230938C0240938D0250938E02609378
:1022C0008F027093900286E0EBE8F2E0DE01179651
:1022D00001900D928A95E1F780918D028195909100
:1022E0008E0299878A8786E0FE013796DE011D9669
:1022F00001900D928A95E1F786E0FE013D96DE01A0
:10230000119601900D928A95E1F786E0FE013196D3
:10231000ABE8B2E001900D928A95E1F786E0EBE838
:10232000F2E0DE01599601900D928A95E1F786E080
:10233000FE017996DE01179601900D928A95E1F7DC
:1023400086E0FE013796DE01119601900D928A9586
:10235000E1F786E0FE013196DE01539601900D9281
:102360008A95E1F786E0FE017396DE0117960190EB
:102370000D928A95E1F786E0FE013796ABE8B2E070
:1023800001900D928A95E1F786E0E4E8F2E0DE0143
:10239000179601900D928A95E1F780918C029885AD
:1023A000892B80938C020E941611811109C08091A3
:1023B0008A0210928A0281706E96E2E00C94E22EFC
:1023C00081E090E0F6CF80911A0290911902892B5A
:1023D0008093BC01909118029923A1F0892B8093DE
:1023E000BC01809141018823E1F18091580387FF6E
:1023F00038C08EE1EEEBF1E090E08150A0F5911154
:102400001092180240E250E068EF71E08CEB91E02E
:102410000E941630892B21F180E2ECEBF1E0A8EF6D
:10242000B1E001900D928A95E1F7E0914F03F091B0
:1024300050033097A9F080914101882359F0809191
:10244000580387FF07C08091BC018093BD0186E0DF
:102450008093BC010280F381E02D8CEB91E0099523
:10246000089586E0C7CF2191222339F29F5FC5CF1F
:10247000882321F00E9455080E94E31108958823C3
:1024800039F090911A02982B90931A020E94E3114E
:1024900008959091590392FB222720F9281779F08B
:1024A00080FB92F9909359036091580370915903FE
:1024B00084E090E00E94F32F82E00E9401090895D9
:1024C00090E080E00E94BF2F863E9E4F19F40E944C
:1024D0009C0E089580E00895A4E0B0E0E2E7F2E108
:1024E0000C94C52E4091310250913202609133021A
:1024F000709134022FB7F894809154039091550352
:10250000A0915603B09157032FBF841B950BA60BC8
:10251000B70B11E084369105A105B10570F10E9459
:102520002A0D6E5F7F4F8F4F9F4F69837A838B8316
:102530009C8380911101909112018B5C9D4F409181
:10254000100150E04530510510F044E050E0BE016C
:102550006F5F7F4F0E94233082E090E00E942C2E1C
:10256000182F882351F00E94100560933102709358
:1025700032028093330290933402812F2496E3E059
:102580000C94E12EABE0B0E0E8ECF2E10C94C62E46
:1025900088E0E5E4F3E0DE01119601900D928A9562
:1025A000E1F780919E0290919F02A091A0028987FD
:1025B0009A87AB872B854091490250914A026091DE
:1025C0004B0270914C023FB7F89480915403909164
:1025D0005503A0915603B09157033FBF841B950B41
:1025E000A60BB70B84369105A105B10510F4222383
:1025F00019F18091190190911A018B5C9D4F4091C6
:10260000180150E04C30510510F04BE050E0BE0195
:102610006F5F7F4F0E94233083E090E00E942C2E5A
:10262000882369F00E9410056093490270934A0262
:1026300080934B0290934C021092A00281E02B9663
:10264000E2E00C94E22EEF92FF921F93CF93DF9380
:1026500000D000D00F92CDB7DEB77B0190E080E0D4
:102660000E942C2E182F882309F487C04091030163
:1026700050E04115510511F041E050E06091040136
:10268000709105016B5C7D4FCE0105960E94233051
:1026900040912D0250912E0260912F0270913002D4
:1026A0002FB7F8948091540390915503A09156034D
:1026B000B09157032FBF841B950BA60BB70B843625
:1026C0009105A105B10540F486E392E00E948B03D9
:1026D0009D81891709F451C081E090E00E942C2E61
:1026E00081111AC010E08091290290912A02A091D4
:1026F0002B02B0912C02F70180839183A283B383D4
:10270000812F0F900F900F900F900F90DF91CF912E
:102710001F91FF90EF90089540910B0150E04530DC
:10272000510510F044E050E060910C0170910D01F2
:102730006B5C7D4FCE0101960E94233086E392E0D0
:102740000E948B039D818913CDCF0E941005609359
:102750002D0270932E0280932F0290933002898174
:102760009A81AB81BC818093290290932A02A09325
:102770002B02B0932C0211E0B6CF809136029091DB
:102780003702A0913802B091390289839A83AB83D2
:10279000BC831111E4CFA7CFA8E0B0E0E2EDF3E1F4
:1027A0000C94C62E66EE7EEF90E080E00E94F32F40
:1027B00060E082E090E00E94D52F60E083E090E04E
:1027C0000E94D52F10921B0260E074E184E090E03B
:1027D0000E94F32F60E086E090E00E94D52F6FEF1B
:1027E00087E090E00E94D52F40E050E0BA0188E0F9
:1027F00090E00E94E72F60E084E290E00E94D52FF5
:1028000060E087E190E00E94D52F60E08CE090E0EE
:102810000E94D52F60E08DE090E00E94D52F1982B4
:102820001A821B821C821D821E821F82188648E02B
:1028300050E068E170E0CE0101960E94C52F40E0B3
:1028400050E0BA0180E290E00E94E72F80E00E9411
:10285000B20D0E94CB0D40E050E0BA018FE090E055
:102860000E94E72F40E050E0BA0183E190E00E942F
:10287000E72F2896E2E00C94E22E1F920F920FB6FB
:102880000F9211242F933F934F935F936F937F93F6
:102890008F939F93AF93BF93EF93FF938091E1004A
:1028A00082FF09C08091E20082FF05C08091E100B3
:1028B0008B7F8093E1008091DA0080FF24C08091BB
:1028C000D80080FF20C08091DA008E7F8093DA00EC
:1028D0008091D90080FF9DC080E189BD82E189BDE2
:1028E00009B400FEFDCF81E080937F0380915A03FD
:1028F000811109C00E94A2030E9443048091E2005A
:1029000084608093E2008091E10080FF17C0809195
:10291000E20080FF13C08091E2008E7F8093E2008E
:102920008091E20080618093E2008091D800806213
:102930008093D80019BC85E080937F038091E100EB
:1029400084FF2BC08091E20084FF27C080E189BD15
:1029500082E189BD89B5982F917080FFFBCF80916E
:10296000D8008F7D8093D8008091E1008F7E809386
:10297000E1008091E2008F7E8093E2008091E2008E
:1029800081608093E20080918003882309F447C02E
:1029900084E080937F0380917F038091E10083FF37
:1029A00027C08091E20083FF23C08091E100877FF0
:1029B0008093E10082E080937F03109280038091F6
:1029C000E1008E7F8093E1008091E2008E7F809312
:1029D000E2008091E20080618093E20042E060E0EA
:1029E00080E00E9411048091F00088608093F000E4
:1029F000FF91EF91BF91AF919F918F917F916F91D7
:102A00005F914F913F912F910F900FBE0F901F90AC
:102A1000189519BC10927F0310925A0374CF8091BD
:102A2000E30087FD93E090937F03B5CF78941F92E6
:102A30001FB61F9211248F939F93AF93BF938091E2
:102A4000540390915503A0915603B09157030196FA
:102A5000A11DB11D8093540390935503A093560379
:102A6000B0935703BF91AF919F918F911F901FBE5D
:102A70001F9018959C014FB7F89480915403909142
:102A80005503A0915603B09157034FBF821B930B80
:102A900008952FB7F8948091540390915503A09115
:102AA0005603B09157032FBF08950E9449159C010A
:102AB0009091860280918702982B21F030937D02BD
:102AC00020937C029091880280918902982B21F0BA
:102AD00030937B0220937A0284E892E00E94C5053D
:102AE000089510921A0280914101EEEBF1E08823E3
:102AF00029F18091580387FF21C08EE1DF011D92EB
:102B00008A95E9F790E080E00E94A00590E080E0DF
:102B10000E947B05109219020E94E31186E0E4E80E
:102B2000F2E0DF011D928A95E9F710927702109288
:102B30007802109279020E945515089586E0DECF42
:102B4000AAE2B0E0E6EAF5E10C94C52E81E893E054
:102B50002091F100DC012D93CD01B3E089389B0772
:102B6000B9F780918203833009F472C0B8F48130E0
:102B700009F449C0823009F4B3C08091E80083FFB2
:102B80008BC280918103909182039A3008F084C2B5
:102B9000E92FF0E0E25DFF4C0C94312F8A3009F40C
:102BA0008EC08B3009F471C0893039F78091810370
:102BB000813219F78091850390918603009711F077
:102BC0000297D9F68091E800877F8093E800809192
:102BD000E80082FF38C09091F3008091F2000297E4
:102BE00031F48091F100813011F0863021F4809130
:102BF000F10080935C038091E8008B778093E8007C
:102C00000E94F203BACF80918103813A09F0B5CFD7
:102C10008091E800877F8093E80080918503909100
:102C20008603892B61F460E28DE593E070E00E94F9
:102C30009E048091E8008B778093E8009ECF60E04F
:102C400090E080E0F3CF80917F038111C0CF95CFDA
:102C500080918103813A09F090CF80918503909112
:102C60008603892B09F089CF8091E800877F8093C4
:102C7000E8008091E80080FFFCCF809141018093C3
:102C8000F1008091E8008E77B9CF80918103813285
:102C900009F073CF8091850390918603892B09F009
:102CA0006CCF8091E800877F8093E8000E94F20358
:102CB00080918303809341010E9471155ECF8091C2
:102CC0008103813209F059CF8091E800877F80939A
:102CD000E8000E94F2038091840380935B034DCF50
:102CE00080918103813A09F048CF8091E800877F85
:102CF0008093E8008091E80080FFFCCF80915B0327
:102D0000BECF803899F0823809F0C6C18091850322
:102D10008F70873008F0C0C18093E9008091EB008C
:102D200085FB882780F91092E90006C080917D0319
:102D300090917E03911182609091E800977F90932B
:102D4000E8008093F1001092F1008091E8008E7706
:102D50009FC1882309F48DC1823009F09DC1809103
:102D60008303811190C1809185038F702FEF280F0D
:102D7000263008F091C18093E9002091EB0020FFFC
:102D800082C1933031F48091EB0080628093EB003C
:102D90007AC19091EB0090619093EB0021E030E0DC
:102DA00001C0220F8A95EAF72093EA001092EA0008
:102DB0008091EB008860EACF81116EC1109183038E
:102DC0001F778091E3008078812B8093E3008091CE
:102DD000E800877F8093E8000E94F2038091E8007A
:102DE00080FFFCCF8091E30080688093E30082E065
:102DF000111183E080937F034FC18058823008F027
:102E00004BC120918303309184032C3DE3E03E07C6
:102E1000A1F583E08A838AE289834FB7F894DE01C3
:102E2000139620E03EE051E2E32FF0E0509357008C
:102E3000E49120FF03C0E295EF703F5FEF708E2FAB
:102E400090E0EA30C0F0C7968D939D932F5F2431B8
:102E500059F74FBF8091E800877F8093E8006AE2CE
:102E600070E0CE0101960E949E048091E8008B776D
:102E70008093E80011C1C096E7CF809185039091BF
:102E80008603432F55274330510509F44AC078F58E
:102E90004130510509F47AC08BE590E0E9E0F6E0B5
:102EA0004230510509F0F8C02091E800277F2093B7
:102EB000E80020918703309188038217930708F474
:102EC0009C0140E02115310509F065C0411163C046
:102ED0008091E80082FDC9CF80917F03882329F289
:102EE000853019F28091E80083FFF2CFBECF4132E6
:102EF000510509F43CC04232510509F0CDC0833080
:102F0000910508F0C9C0FC01EE0FFF1FE355FE4F0D
:102F10000190F081E02D86559E4FDC018C9190E070
:102F20001AC0332721303105D1F02115310561F068
:102F30002230310509F0B0C0E6E7F6E0E4918E2FCB
:102F400090E0E6E7F6E007C0E6E9F6E0E4918E2FD0
:102F500090E0E6E9F6E0009709F49EC0A5CFE4E82A
:102F6000F6E0E4918E2F90E0E4E8F6E0F4CF8330D1
:102F7000910508F091C0880F991FFC01ED54FE4F98
:102F80000190F081E02D89E090E08ECF82E190E029
:102F9000E4E6F6E089CF80917F03882309F465CFCA
:102FA000853009F462CF8091E80083FD5ECF809187
:102FB000E80082FD8DCF8091E80080FF83CF909163
:102FC000F3008091F2002115310519F08830910548
:102FD00050F041E0089709F040E08091E8008E77DA
:102FE0008093E8006FCF44914093F10031962150D7
:102FF00031090196E8CF803809F04EC08091E80091
:10300000877F8093E800809180038093F1009DCEBC
:10301000811142C0109183031230F0F58091E800D5
:10302000877F8093E800109380030E94F2031123AE
:1030300011F084E005C08091E30087FDFACF81E0C4
:1030400080937F0342E061EC81E00E94110442E240
:1030500061EC84E00E94110442E261EC82E00E9493
:10306000110442E260EC83E00E94110480917F032E
:1030700013C080918303813079F481E0933009F0AB
:1030800080E080937E031092E9008091E800877FC2
:103090008093E8000E94F2038091E80083FF0AC059
:1030A0008091E800877F8093E8008091EB00806248
:1030B0008093EB00AA96E3E00C94E12E1F920F920E
:1030C0000FB60F9211242F933F934F935F936F93FB
:1030D0007F938F939F93AF93BF93CF93DF93EF93A0
:1030E000FF93D091E900DF708091EC00C82FC17090
:1030F00080FDC0E81092E9008091F000877F809306
:10310000F00078940E94A0151092E9008091F000E0
:1031100088608093F000CD2BCF70C093E900FF91C1
:10312000EF91DF91CF91BF91AF919F918F917F915F
:103130006F915F914F913F912F910F900FBE0F9024
:103140001F9018950E9471152FEF84E39CE0215089
:1031500080409040E1F700C0000088E19AE00FB69F
:10316000F894A895809360000FBE90936000FFCF05
:10317000662309F472C08D3C41F40E9419068195C2
:10318000809387020E94551508958E3C19F40E9481
:103190001906F6CF8F3C31F40E9419068195809371
:1031A0008602F0CF803D19F40E941906F8CF893DC0
:1031B00029F40E94F70580938802E4CF8A3D21F428
:1031C0000E94F7058195F7CF8B3D31F40E94F705FA
:1031D000819580938902D6CF8C3D19F40E94F70522
:1031E000F8CF9FE2980F983020F5282F215D330B00
:1031F000A90121E030E001C0220F4A95EAF7909141
:103200008502922B90938502815D21E030E0A90137
:1032100002C0440F551F8A95E2F7CA0120918C0223
:10322000662309F493C0822B80938C020E941611AE
:1032300008958D3D31F48091790281608093790207
:10324000A1CF8E3D21F4809179028260F7CF8F3D2E
:1032500019F5809179028460F1CF909186028D3CBE
:1032600059F42091870227FF0DC010928702911117
:103270000BC01092770208C08E3CB1F420918702F7
:1032800012169CF39923B1F0909188022091890243
:10329000922B11F410927802482F415D550B483063
:1032A000510508F4B1CF6ECF8F3C39F497FFEACFC8
:1032B0001092860290918702DACF803D19F4191698
:1032C000BCF3E0CF20918802893D29F41216D4F690
:1032D00010928802D7CF8A3D19F427FFD3CFF8CFB9
:1032E000209189028B3D29F427FFCCCF10928902CF
:1032F000C9CF8C3D19F41216CCF3C4CF2FE2280F9E
:10330000283088F4282F215D330BA90121E030E01B
:1033100001C0220F4A95EAF72095309185022323B8
:1033200020938502AFCF209179022E7F8D3D59F0F9
:10333000209179022D7F8E3D31F08F3D09F0A2CF93
:10334000209179022B7F209379029CCF8095822354
:103350006BCF882399F19CEF980F913A40F4682F36
:103360008CEB91E00E941C050E94E311089590E20D
:10337000980F983050F4877091E001C0990F8A95AA
:10338000EAF7892F0E945508EFCF9BE5980F9330FD
:1033900028F490E080E00E94A005089598E5980F39
:1033A0009B3128F490E080E00E947B05089593E330
:1033B000980F933118F460E00E94B8180895CF93E5
:1033C000C82F8823D9F18CEF8C0F813AC8F58091F2
:1033D0004101882311F18091580387FF1EC0EC2F13
:1033E000E695E695E695F0E0E454FE4F828190E0A4
:1033F0004C2F477021E030E002C0220F331F4A9566
:10340000E2F782239323892B91F06C2F8CEB91E0D0
:103410000E941C050E94E3110AC0EEEBF1E084EC6F
:1034200091E02191C21789F38E179F07D1F76C2F76
:103430008CEB91E00E9446050E94E311CF91089524
:1034400080E28C0F883068F4C77021E030E001C062
:10345000220FCA95EAF780911A02822B80931A02F2
:10346000EBCFEBE5EC0FE33040F4F0E0EE5BFE4F2A
:10347000808190E00E94A005E1CFE8E5EC0FEB3100
:1034800050F4F0E0EE0FFF1FEB5BFE4F8081918167
:103490000E947B05D3CF83E38C0F833178F661E004
:1034A0008C2F0E94B818CACF1F93CF93DF93182F89
:1034B000D0E0C0E0893311F4C0E5D0E0812F0E9454
:1034C000DF19209739F4812F0E94A919DF91CF913C
:1034D0001F9108958FE99FE00197F1F700C0000068
:1034E0002197EFCF0F931F93CF93DF93C62FD42F46
:1034F000022FFC0185818823A9F06093C5030E94F7
:1035000049159093C4038093C303C77081E001C041
:10351000880FCA95EAF70E943F12DF91CF911F9161
:103520000F9108958091C503681332C08091C30341
:103530009091C4030E943A15883C910548F510E229
:103540001D0FCD17B9F080E28C0F883040F4C770A2
:1035500081E001C0880FCA95EAF70E94381218303E
:1035600048F481E09D2F977001C0880F9A95EAF783
:103570000E943F12802F0E94541A183070F6D770A4
:1035800081E001C0880FDA95EAF70E943812C5CFB2
:10359000C77081E001C0880FCA95EAF7F6CF0E9494
:1035A000F60C882319F00E94491508950E942A0DEF
:1035B000CB01089560914503669570E04BE050E0C3
:1035C0008EE291E00E940930892B19F481E080930A
:1035D0009F020E94CF1A9093990280939802809143
:1035E000A00284608093A00208959091450390FF0B
:1035F00039C09170811137C09260909345038091DA
:10360000A00281608093A002662391F0209145037F
:10361000309146034091470350914803609149031C
:1036200070914A0380914B0390914C030E94B50E18
:1036300060914503669570E04BE050E08EE291E0CA
:103640000E940930892BB1F00E94DA0581E0809355
:103650009B0220E04091480360914703809146031C
:103660000E94DB0E0895833210F09464C6CF880F59
:10367000982BC3CF0E94DA1AE9CF80914503869533
:10368000815009F482E261E00E94F51A0895809168
:10369000450386958F5F833208F081E061E00E94E8
:1036A000F51A08959091450390FF08C096959817D4
:1036B00028F0961718F40E94471B089561E00E94B5
:1036C000F51A0895A8E0B0E0E8E6FBE10C94B82E06
:1036D0008C01DC0114968C911497882309F4B8C0EE
:1036E00021E04C9111965C91119712966C91129772
:1036F00013967C91139715969C910E94770E7C01EE
:10370000F8018581882309F43CC1C70197578038A7
:10371000910508F095C5FFE0FE1508F489C08FEF0C
:1037200093E00E94B12F811183C069EAA62EBB24C9
:10373000B394E11047C0FE01339686E0DF011D928D
:103740008A95E9F75AE0452E7501BFEFEB1AFB0A9F
:10375000C5010E94B12F89831A82882309F468C0A9
:10376000813009F079C06501E2E0CE0ED11CC701BD
:103770000E94B12F8A83882309F45AC09FEF980FC3
:10378000933070F5F3E0AF0EB11CC6010E94B12F6B
:103790008B83882309F44CC01C82DE0111967D01C5
:1037A000F7012081222381F2213009F095C0918117
:1037B0008281913009F052C0F2E0EF0EF11C0E94BC
:1037C000541A53C0A11424E0B20691F1C5010E941D
:1037D000B12F811101C0EA943FEFA31AB30AA9CF18
:1037E00056018430D1F642E0E42EF12C56012FEF41
:1037F000A21AB20AC6010E94B12FE1E0F0E0EC0F7C
:10380000FD1FEE0DFF1D8083882391F08C3741F45E
:10381000E2E0F0E0EC0FFD1FEE0DFF1D1082BDCFCA
:103820003FEFE31AF30A650187E0E816F104F1F6C9
:103830008091F701877061F0D80115968C918823EB
:1038400039F08091590382FF03C082E00E94010990
:103850002896E0E10C94D42E57019FCF923049F482
:1038600022E0E20EF11C0E94DF19EFEFEE1AFE0AD1
:1038700097CF933031F432E0E30EF11C0E94A91986
:10388000F4CF943021F08FEFE81AF80AEECF92E0EF
:10389000E90EF11C30E020E0B7016F5F7F4FD701E8
:1038A00011964C918053990B8A30910550F021501C
:1038B0003109D8F2EFE9FFE03197F1F700C00000DD
:1038C000F6CF429EF001439EF00D11249C012E0F75
:1038D0003F1F842F7B01E0CFE22FF0E0EC50FD4F43
:1038E0005490822F86958695869590E0FC01EC5148
:1038F000FD4F64902770712C022E02C0759467945E
:103900000A94E2F731E063227724FC01EC52FD4F88
:103910008490912C022E02C0959487940A94E2F729
:10392000A1E08A229924FC01EC53FD4FC490D12CD4
:1039300002C0D594C7942A95E2F7B1E0CB22DD24EA
:103940006114710419F081EE0E94DF198114910451
:1039500019F086EE0E94DF19852D0E94541A8114F9
:10396000910419F086EE0E94A9196114710419F0EE
:1039700081EE0E94A919C114D10409F476CF8CE21A
:103980001ECFF701E851FC47E730F10508F044C4C9
:10399000E85CFF4C0C94312F26E241EE61EEC80149
:1039A0000E94721A45CF27E245EE65EEF8CF26E277
:1039B00041EE60EEF4CF27E245EE64EEF0CF26E272
:1039C00041EE62EEECCF27E245EE66EEE8CF28E26C
:1039D00041E0EBCF8091580381608093580395C0FC
:1039E000809159038860809359038FC08091580358
:1039F0008260F3CF809158038460EFCF80915803A9
:103A00008860EBCF809159038160EDCF809159039D
:103A10008260E9CF809158038061DFCF80915803A5
:103A20008062DBCF809158038064D7CF0E947115EC
:103A3000809158038068D1CF809158038C60CDCF9E
:103A4000809159038360CFCF809158038E7FC5CF7B
:103A500080915903877FC7CF809158038D7FBDCF59
:103A6000809158038B7FB9CF80915803877FB5CF62
:103A7000809159038E7FB7CF809159038D7FB3CF4B
:103A8000809158038F7EA9CF809158038F7DA5CF59
:103A9000809158038F7BA1CF0E94711580915803AC
:103AA0008F779BCF80915803837F97CF8091590365
:103AB0008C7F99CF8091580382FB992790F921E060
:103AC000922790FB82F990FB83F987CF809159036D
:103AD000982F909591708E7F892B90FB81F983CFE1
:103AE00090915803892F8F7B96FF806476CF0E9438
:103AF000711590915803892F97FB87F980586DCFE6
:103B000061E08EE090E00E94D52F609158037091A3
:103B1000590384E090E00E94F32F0E94711588CE33
:103B200060E0EFCF90915803892F8F7E94FF8061E2
:103B300054CF90915803892F8E7F90FF81604DCF95
:103B400090915903892F877F93FF88604CCF809194
:103B5000DC0169E2811165E38CEB91E00E941C05B8
:103B600058C3F7E7EF16FCE7FF0609F021C381E031
:103B70000E94180943E062E081E00E94D40858CE18
:103B80008091450380FF1EC0282F2E7F2093450380
:103B90003091460340914703509148036091490397
:103BA00070914A0380914B0390914C030E94B50E93
:103BB0000E94DA058091A00281608093A0020E9499
:103BC000360A36CE81608093450361E086950E9477
:103BD000F51A2ECE4DE35BE167E47BE10E94D3054D
:103BE00027CE47E45BE16DE37BE1F8CF45EA5FE098
:103BF0006FEA7FE0F3CF4FEA5FE065EA7FE0EECF68
:103C00004BE85FE068E97FE0E9CF48E95FE06BE817
:103C10007FE0E4CF41E75FE06EE77FE0DFCF4EE794
:103C20005FE061E77FE0DACF49EB5FE063ED7FE0E3
:103C3000D5CF43ED5FE069EB7FE0D0CF61E081E07D
:103C4000C6CF65E082E00E94521BF2CD68E086E0BC
:103C5000FACF6EE089E0F7CF64E18FE0F4CF67E15F
:103C600085E1F1CF61E088E1B2CF62E289E1EBCF9B
:103C700027E7E2162CE7F20609F457C038E7E31607
:103C80003CE7F30609F455C0F8018581E080F18036
:103C9000882309F482C0C7010E94180ED82E682F0D
:103CA000C7010E949A08B7018D2D0E940A0E0E943A
:103CB00037077C01882ED8011596AC90159716967B
:103CC0009C9092943FE093228091F7018770F1F0ED
:103CD000CA2CAA20E1F08F2D807F803451F080E241
:103CE0008E0D883098F0911004C08F2D807E803228
:103CF00069F08091590382FF09C082E00E940109A6
:103D00008091F7018770CC24C3948111C12CBF2C02
:103D1000B2942FE0B222BBE0BB1508F4A6C0EB2D95
:103D2000F0E0E15CFF4C0C94312F81E00E94F4083C
:103D300021CF82E0FBCFEBE5EE16ECE7FE0659F172
:103D4000FCE5EF16FCE7FF06E1F02AE5E2162CE7BA
:103D5000F20609F099CF81E01BC00E9471153FEF78
:103D600084E39CE0315080409040E1F700C00000C7
:103D70000E94FF046FEF7FEF90E080E00E94F32F3E
:103D800031C28091590382FB882780F991E089270D
:103D90000E94491279CF80E0FBCFC7010E946608DC
:103DA000D82E81CFEF2DEF70DE2E8F2D807F19F072
:103DB000D29490EFD922AA20B9F0DD2069F080E2F8
:103DC0008E0D883010F0811009C080911A02D82A17
:103DD000D0921A020E94E3118E2D45C080911902E3
:103DE000D82AD0921902F6CF8E2D0E94A919DD2073
:103DF000E1F180E28E0D883010F0811004C08D2D2D
:103E00000E94550806C0D09480911902D822D09201
:103E100019020E94E31129C0FF2DFF70DF2E8F2DA4
:103E2000807F803219F0D29480EFD822882059F018
:103E300021E0821609F481C0AA2009F48DC09920DE
:103E400009F44FC0C9CF8091590382FD46C0AA2012
:103E5000F1F1DD2039F080911A02D82AD0921A02AD
:103E60000E94E31180E00E94DF19AB2DA850BB0B2C
:103E7000149710F40E94190DCC20A9F08091F7013D
:103E800080FD11C0F80115828695869586950E9461
:103E90001809C8010E94621B8091F70186958695DA
:103EA00086950E94F40820E0D8014C9111965C910F
:103EB000119712966C91129713967C911397149602
:103EC0008C91149715969C910E94770EC1CC80E03E
:103ED0000E94A919DD2049F292CFAA20A1F09110E9
:103EE00004C08D2D0E943F12C0CF31E09312BDCF90
:103EF000809118029D2D9823D91609F4B6CFD82A9F
:103F0000D0921802B2CF9110B0CF8D2D0E943812EE
:103F1000909118028D2D892329F08D2D809589236C
:103F2000809318028091DD019D2D982309F49DCF87
:103F3000D094D822D092DD0198CFAA2029F085E034
:103F4000891508F492CFCDCF94E0991508F48DCF60
:103F50008D2D0E94381289CF9920D1F3A9E38A12BE
:103F600009C0BFEFE7EEF3E0B150E040F040E1F709
:103F700000C000008E2D0E94A91977CF8F2D869545
:103F80008695837061F0813009F06FCFC70193701F
:103F9000A11002C080E090E00E947B0566CFC701BF
:103FA0009370A11002C080E090E00E94A0055DCF58
:103FB0006A2D8E2D0E94B81858CF8F2D837091F5E1
:103FC000A11053CF4E2D429546954770440F440F94
:103FD0008E2D8F70042E01C0880F0A94EAF72E2DC3
:103FE0002071E4FE07C02FE030E001C0220F4A95A7
:103FF000EAF720953F2D369536953370323069F0CB
:1040000050F440911B02313029F0822B84230E940E
:1040100024092BCF842B822BFACF282B80911B02D3
:104020008227F5CF8695AA2011F08F2D81708823E5
:1040300009F41BCF4E2D429546954770440F440F0F
:104040008E2D8F70042E01C0880F0A94EAF72E2D52
:104050002071E4FE07C02FE030E001C0220F4A9536
:10406000EAF720953F2D369536953370323069F05A
:1040700050F440915C02313029F0822B84230E945D
:10408000D108F3CE842B822BFACF282B80915C02AF
:104090008227F5CF2F2D2F70F22EAA2029F0822F04
:1040A0000E9418098E2D1ECF8E2D0E9438128F2D42
:1040B0000E94F408DACE8E2D32EF8316B1F1381556
:1040C00070F090EF8916D1F0A1EF8A1691F0AA2036
:1040D00009F45EC0911080CE8F2D8F712AC0B3EF8E
:1040E0008B1651F1E4EF8E12F2CF8091590382FDCD
:1040F0002FC08F2D8F71AA20D9F21BC0AA2081F06A
:10410000F4E0F91508F4B1CE2F2D2F7181E090E085
:1041100001C0880F2A95EAF790915C028927AFCFFA
:1041200025E0291508F4A1CEEFCF8F2D8F71A110B6
:10413000BFCF0E94180999CE80E0AA2009F49FCF32
:104140009F2D9F7181E001C0880F9A95EAF797CF64
:10415000AA2099F03F2D3F71F32E832F0E9418095A
:104160008091590382FF07C0A8E0FA9EC001112484
:1041700083608093F7018F2DDCCF81E00E940109DD
:10418000B1E0B91508F071CE82E00E9401096DCE50
:10419000992059F0893309F0EDCEEFEFF7EE23E0E7
:1041A000E150F0402040E1F7E3CE8F2D8F7180CFBA
:1041B00082E0B8E7EB16BCE7FB0609F4D9CC83E054
:1041C000E8168CE7F80609F4D5CD08F0B4CDE11473
:1041D000ACE7FA0609F4C1CDB1E0EB16BCE7FB068B
:1041E00009F052CD0E94A218E6E1EE16ECE7FE06B9
:1041F00009F0B7CC80911A028A7A91E009F490E034
:104200009093DC0169E2811165E38CEB91E00E94FF
:1042100046050E94E3110CCBF6E1EF16FCE7FF0622
:1042200009F495CC80911A028272F701E052F847A6
:10423000E531F10508F01CCDE55BFF4C0C94312F06
:10424000F701E851FC47E730F10508F4A1CB1092E3
:10425000C503C7019057839738F684E090E00E9429
:10426000BF2F9093590380935803F701E150F04713
:10427000E232F10508F0AECBE05AFF4C0C94312F3E
:10428000CF93DF938091F601807F09F04DC080913C
:10429000F501882309F448C0E091C20350918903D5
:1042A000C091F101D091F0016091F2017091F301A0
:1042B00047E05E17C9F18E2F90E0E49FF0011124D2
:1042C000E657FC4F2481222391F1489FF001499F3A
:1042D000F00D1124DF01A657BC4F11962C911197B8
:1042E0002C1325C02C912D1322C015962C911597B7
:1042F00021111DC012962D913C91261B370B283C95
:104300003105A8F48091F6018F7080618093F601E9
:10431000E057FC4F80818F708061808380EF91E057
:104320000E94621B0E945C08DF91CF910895FC01FE
:104330003196E770BECFA4E1B0E0E1EAF1E20C947F
:10434000BC2E8C0186E0F801DE011F9601900D92D3
:104350008A95E1F7F8018481E58090EFA92E91E03C
:10436000B92E9091F401911128C0882319F1EE2003
:10437000F1F0C8010E94540EF82E8823C1F087E0A6
:10438000F801D50101900D928A95E1F78091F40131
:10439000813031F48091F0019091F1010E94470E3B
:1043A0000E9440218F2D6496ECE00C94D82EC80119
:1043B0000E94621BFF24F394F5CFD080C1808280DD
:1043C0009380F090F5012091F2013091F301A40166
:1043D000421B530BFF2009F4D9C0483C510508F09B
:1043E00092C08823F9F29091F1018091F601282F73
:1043F000207F09F056C0C91214C09091F001D91263
:1044000010C0E11048C08F7080618093F60180EF8A
:1044100091E00E94621B8091F601F8018683F12CE5
:10442000C1CFE11038C06C2D8D2D0E946C036C2D16
:104430008D2D0E946C03E82E8111F1CFDF86C88A92
:104440008F8598890E94470E292F22952F7024303E
:1044500058F49F70223088F0992399F0F8019681E2
:10446000907F79F4FE2C9ECF2A5F2F70223068F067
:10447000C8010E94621BEF2CF5CF992311F088230D
:1044800089F3805E883070F3F3CF803F58F3815F0B
:10449000833070F7E7CF8091F60181608093F60159
:1044A000BECFC91207C09091F001D91203C0EE200F
:1044B00009F48DC0C8010E94540E882309F477CFF7
:1044C000EE2009F474CF8091F601803288F02091BB
:1044D000F0013091F101398728879B868A86909177
:1044E000F4019C871D868E87CE0108960E94621B70
:1044F00087E0F801A0EFB1E001900D928A95E1F715
:104500000E94402157CF9091F601292F207F51F42E
:1045100080EF91E00E94621B87E0F50111928A957D
:10452000E9F77DCF882309F43DCF8091F1018C110B
:1045300010C08091F001D8120CC0E1100AC096831F
:10454000C8010E94621B87E0F50111928A95E9F784
:1045500029CFC8010E94540E882309F428CFEE20E9
:1045600009F425CF8091F601803210F22091F001FC
:104570003091F1013A8329839C828B829091F401DE
:104580009D831E828F83CE010196B0CF483C51059A
:10459000D0F6882309F40ECFFE2CEE2009F407CFC5
:1045A0008091F1018C1120C08091F001D8121CC0C3
:1045B0008091F60180FD0FC0982F907F61F0868377
:1045C000903F31F0982F907F905F8F70892B86837A
:1045D000C8010E94621B87E0F801A0EFB1E00190E2
:1045E0000D928A95E1F7DECEC8010E94540E81112A
:1045F0007FCF8091F60181608093F601C8010E940F
:10460000621BD0CEABE1B0E0E8E0F3E20C94C42E44
:104610004E8B5F8B688F798F8A8F9B8F192F9111AB
:10462000109219021D8A86E0FE017696DE011F9621
:1046300001900D928A95E1F70A8D002341F021E067
:104640004F85588969897A89C8010E94770E0B8B3A
:104650001C8B87E0FE013F96DE01189601900D92BB
:104660008A95E1F7CE0108960E949B2181110CC02A
:1046700087E0FE013896DE01119601900D928A9531
:10468000E1F78C8581110BC017E08091C2039091F6
:104690008903891331C06B96E4E00C94E02E2091DD
:1046A000890330E0C9010196877099274091C203C0
:1046B0004817190699F097E0929FD001939FB00D8B
:1046C0001124A657BC4FFE01319601900D929A9588
:1046D000E1F7809389030E945C08D6CF0E94711590
:1046E000109289031092C20387E0E0EFF1E0DF014E
:1046F0001D928A95E9F7C8CF819FC0011124865782
:104700009C4F0E949B21882331F28091C20390E04C
:104710000196877099278093C203B7CFA3E1B0E0D9
:10472000E4E9F3E20C94BB2E8E01045F1F4F88E096
:10473000D8011D928A95E9F78DE7C82E81E0D82E21
:10474000F12CE12CAA24A394B12C27E8822E21E09D
:10475000922EF60181916F018F3F09F442C0F894C7
:10476000E82FE295EF70F0E021A18F70A50102C063
:10477000440F551F8A95E2F7CA01922F982B91A3F7
:1047800092A18095892382A3789400C0E1E8F1E0AA
:10479000712C31E021912F3F09F46BC0A22FA2951B
:1047A000AF70B0E090968C9190E02F7002C095951C
:1047B00087952A95E2F780FD5CC0832F782A330F16
:1047C0008E169F0639F7F601319780818F3F11F0E1
:1047D0000E943B0650EA5A95F1F7F801EE0DFF1DD5
:1047E00070828FEFE81AF80AA4E0EA16F10409F0E3
:1047F000B0CF48E050E0B80182E592E00E94163068
:10480000009741F028E0F801A2E5B2E001900D9296
:104810002A95E1F700915B02892B69F181E0809391
:1048200020020E94491590931F0280931E028091DE
:104830001E0290911F020E943A15059700F110E0A8
:1048400005591D4F44E050E062E572E0C8010E9446
:104850001630B12C892B51F084E0E2E5F2E0D8016A
:1048600001900D928A95E1F7BB24B3941092200237
:1048700007C080E0A3CF809120028111D8CFB12C56
:104880000E94F60CA82EE0915B02882309F47DC0FB
:1048900019821A821B821C820E2F10E005591D4FAF
:1048A00080914D028A30D8F543E253E1BE016F5F3B
:1048B0007F4FC8010E94C30C882309F455C04CE601
:1048C00052E1BE016F5F7F4FC8010E94C30C882375
:1048D00009F44AC042EC52E1BE016F5F7F4FC8014C
:1048E0000E94C30C882309F43FC010924D028091AE
:1048F0005A0290E044E050E0BE016F5F7F4F85595F
:104900009D4F0E94163021E020932702892BF1F45D
:10491000A12C8A2D8B296396EDE00C94D72E8091E3
:104920002102909122020E943A15843F914008F0A2
:10493000BBCF80912702882359F384E0FE01319692
:10494000DF011D928A95E9F710922702E0915A0241
:10495000F0E0E559FD4F89819A81AB81BC8180836C
:104960009183A283B383D5CF80914D028F3F31F0E5
:104970008F5F80934D028A3008F4B9CF0E944915A9
:104980009093220280932102D4CFF0E0E559FD4FAD
:1049900084E0A6E3B2E001900D928A95E1F786E308
:1049A00092E00E948B0380933502C0903A02D0902F
:1049B0003B02E0903C02F0903D02809123029091F6
:1049C0002402A0912502B0912602C816D906EA0653
:1049D000FB06D1F0C0922302D0922402E09225027D
:1049E000F09226020E94F60C81110EC00E94100562
:1049F000C61AD70AE80AF90AC0924E02D0924F02AC
:104A0000E0925002F09251028BE0EEE3F2E0DE0120
:104A1000119601900D928A95E1F780913E0286955C
:104A2000F0903F02E0904002D09041020091470296
:104A30001091480210924802112309F46ACF10FF26
:104A40000BC0998190FF1CC0909145039160909399
:104A5000450360E00E94F51A11FF06C020E04D2DCD
:104A60006E2D8F2D0E94DB0E12FF04C0002359F023
:104A70000E94DA1A13FF4DCF81E080939B0249CF49
:104A80000E94B40CE9CF0E94DA05F4CFA6E0B0E0B2
:104A9000ECE4F5E20C94C42E0E9449158C0180913F
:104AA0001C0290911D028017910781F019821A82D1
:104AB0000E944915682F49815A81792F80E090E042
:104AC0000E94022310931D0200931C022696E4E02C
:104AD0000C94E02E1F921FB61F9211248F939F9368
:104AE000AF93BF9380915303811113C080915403FE
:104AF00090915503A0915603B09157034196A11D83
:104B0000B11D8093540390935503A0935603B09323
:104B10005703BF91AF919F918F911F901FBE1F9020
:104B20001895CDB7DEB7A6970FB6F894DEBF0FBEC7
:104B3000CDBF85B7806885BF85B7806885BF84B7DE
:104B4000877F84BF0FB6F894A89580916000886134
:104B500080936000109260000FBE80E890E00FB676
:104B6000F89480936100909361000FBE89E396E012
:104B70009093BB018093BA010E94A2030E94430458
:104B80008091E20084608093E200789480917F03BA
:104B90008823A1F01091E9001F709091EC00892FFB
:104BA000817090FD80E8182B1092E9008091E80058
:104BB00083FD0E94A0151F701093E90082E084BD60
:104BC00093E095BD9AEF97BD80936E0010924E02D0
:104BD00010924F0210925002109251020E949C0EAD
:104BE000811102C00E94CB0D0E94F60C91E0892732
:104BF0008093200180912001882309F476C01092CF
:104C00003C018BE180933D010E94F60C81110E94D2
:104C1000402D809120018091200194E0811190E04D
:104C200090935B0284E0891B80935A0284E90E947E
:104C30003B0686E60E943B0687E90E943B0686EC1F
:104C40000E943B0601E811E087E8E82E81E0F82E9B
:104C5000D8018D918D018F3F11F00E943B06E01627
:104C6000F106B1F788E0EBE6F2E0DF01282F1D92B4
:104C70002A95E9F7E2E5F2E0DF011D928A95E9F76E
:104C80000E946012811102C00E94CC1382E090E069
:104C90000E94B12F80935E0284E090E00E94BF2FBB
:104CA00090935903809358030E948E23BFEFE6E749
:104CB000F1E0B150E040F040E1F700C000000E9498
:104CC0008E230E94F60CE4E0811101C0E0E0F0E0E8
:104CD000E559FD4F808181FF0CC06FEF7FEF90E0C1
:104CE00080E00E94F32F0E94FF048BE180933C013F
:104CF00089CF83E090E00E94B12F0E942409809127
:104D00005D02811178C00E946012811104C00E946E
:104D1000CC130E94ED0F88E090E00E94B92F4B0168
:104D20005C0184E290E00E94B12F282F30E040E047
:104D300050E060E070E080E090E000E20E946F2FC1
:104D4000282939294A295B292093450330934603B2
:104D500040934703509348036093490370934A0379
:104D600080934B0390934C038091A00283608093C7
:104D7000A0022E7F89F50E94ED0F88E090E00E944E
:104D8000B92F6B017C0184E290E00E94B12F282FA3
:104D900030E040E050E060E070E080E090E00E94B1
:104DA0006F2FB22FA32FF42FE52F5B019701860100
:104DB000BC29A12BFE29E32BB0934503A093460306
:104DC000F0934703E093480360934903B0924A038A
:104DD00080934B0390934C030E94E1050E94DA05F7
:104DE0008091450380FF04C060E086950E94F51A1B
:104DF00081E080935D020E94F60C811102C00E9446
:104E0000432D0E940A1081E291E090935003809319
:104E10004F03A8E16A2E712CB3E7EB2EB2E0FB2E14
:104E2000F7E6CF2EF2E0DF2E80917F0300E112E162
:104E3000853009F481C00E948E230FE512E0EBE675
:104E4000AE2EE2E0BE2ED501F80191918D91CE16E5
:104E5000DF0609F47BC09817C1F30E94F60C282ED8
:104E6000912CD5018D905D01F80131908F0138149E
:104E700031F13824512C44244394832D8421B9F0FA
:104E80002220A9F059A29AA20E9449159CA38BA3A3
:104E9000F1E0FDA391E0882D842109F490E09EA328
:104EA00049A15AA16BA17CA18DA10E940223539418
:104EB000440C26E05212E1CFF8013197808293949E
:104EC00048E09412CECF0E942A0D44C080917F0307
:104ED000843021F10E9443111092530320E40FB655
:104EE000F894A895609260000FBE2093600083B78D
:104EF000817F846083BF83B7816083BF7894889506
:104F000083B78E7F83BF0FB6F894A8958091600019
:104F1000886180936000109260000FBE80917E03D4
:104F2000882351F00E948E23EBE6F2E081918111FB
:104F3000CEC3EE16FF06D1F780917F03853009F4CA
:104F4000C5CF0E9471150E94190D75CF981385CF9A
:104F50000E9446250E94F60C80919F02882309F446
:104F600064C080919E02E0914503E695E81BE093C2
:104F70009A02823009F089C1F0E0E058FC4FE491D8
:104F80000E2F10E070EAA72E7CE0B72E80919B02D6
:104F9000882361F010929B020E94CF1A909399028D
:104FA0008093980210929D0210929C020E94CF1A48
:104FB000E0919802F09199029C012E1B3F0B2F3F2C
:104FC0003F4798F5209169022223B1F010926902BF
:104FD0002091670230916802821B930B8F3F9F479D
:104FE00058F4205D3A48309368022093670280911C
:104FF000A00288608093A00280909C0290909D0205
:10500000E00FF11FF0939902E093980288E992E093
:10501000F501099580919C0290919D02892B29F4BC
:10502000892819F081E0809369020E94431181115F
:105030000E942A0D86E0E4E8F2E0DE01119601907C
:105040000D928A95E1F710928602109287021092D3
:105050008802109289028B819C81892B09F44AC0B5
:1050600080917C0290917D020E943A159C01909162
:105070007702992309F44FC325313105D8F19F3FB9
:1050800019F09F5F909377021B81112359F00E94C2
:1050900019069FEF11160CF491E0899F802D1124C1
:1050A000809386021C81112359F00E9419069FEFFC
:1050B00011160CF491E0899F802D112480938702B2
:1050C000309186023323B1F020918702222391F0A0
:1050D00045EB3403C0011124992309F41CC19093BA
:1050E000860245EB240390011124332309F417C1F0
:1050F000309387028D819E81892B09F44AC080916B
:105100007A0290917B020E943A159C01909178025C
:10511000992309F4FBC221353105D8F19F3F19F0DD
:105120009F5F909378021D81112359F00E94F7052B
:105130009FEF11160CF491E0899F802D112480932C
:1051400088021E81112359F00E94F7059FEF111666
:105150000CF491E0899F802D112480938902309175
:1051600088023323B1F020918902222391F045EB8C
:105170003403C0011124992309F4D5C09093880207
:1051800045EB240390011124332309F4D0C030935C
:10519000890246E050E0BE016F5F7F4F84E892E0F5
:1051A0000E941630892B61F48091860290918702CB
:1051B000892B90918802892B90918902892B11F07B
:1051C0000E94551586E0FE013196A4E8B2E00190F8
:1051D0000D928A95E1F70E94190D90916A02891744
:1051E00021F080936A020E94100580917F03843031
:1051F00009F4A1C00E94F60C882309F415CE409151
:1052000073025091740260917502709176022FB70B
:10521000F8948091540390915503A0915603B09156
:1052200057032FBF841B950BA60BB70B80399140FA
:10523000A105B10508F4F4CD0E9410056093730236
:105240007093740280937502909376028091290185
:105250008F5F809329016091290170912A018091CB
:105260002B010E942709362F272F3A8329838B830E
:105270001C8204E610E024E030E0AE014F5F5F4F97
:1052800060E084E10E94762CCBCD863059F4F0E0CA
:10529000E358FC4FE4910E2F10E060E9A62E6CE07D
:1052A000B62E74CE893061F4E695F0E0E658FC4FF6
:1052B000E4910E2F10E05CE1A52E5CE0B52E66CEE9
:1052C0008F3061F4E695F0E0E958FC4FE4910E2F41
:1052D00010E04EE8A42E4BE0B42E58CE853159F4A0
:1052E000F0E0EC58FC4FE4910E2F10E036E0A32ED6
:1052F0003BE0B32E4BCE08E210E021E8A22E2AE0DC
:10530000B22E883109F442CE00ED17E099EDA92EB6
:1053100095E0B92E3BCE81E080938602E2CE81E01B
:1053200080938702E7CE81E08093880229CF81E0D5
:10533000809389022ECF83E08093E9008091E8007A
:1053400082FF58CF8091E80090E085FF05C00E9461
:10535000C103882399F091E08091E8008B778093D6
:10536000E800992309F446CF8981EFEFE80FE33194
:1053700070F5F0E0EE57FF4C0C94312F80E2A82E30
:10538000B12C8E010F5F1F4F8091E80085FD0AC090
:105390008091E8008B778093E8000E94C103882306
:1053A00099F3D9CF8091F100D8018D938D01B1E0AF
:1053B000AB1AB10849F7CFCF1A828CE08B831BC0A0
:1053C0008A81823009F499C128F4813061F08FEF2D
:1053D000898311C08330C1F08430C9F71B821C82DD
:1053E0001D821E8208C00E9410050E94372F6B8309
:1053F0007C838D839E8340E250E0BE016F5F7F4FD0
:1054000082E00E94C909F6CE2B81822F90E0FE0136
:105410003496245E8830910570F7DC01A559BD4FA4
:105420003C91319301962813F5CFE5CF8A818230E4
:1054300049F0853061F68091450380FF0EC00E94DF
:10544000B40CD9CF6B817C818D819E810E94372FD6
:1054500088E290E00E94D52FCECF816080934503F3
:1054600060E086950E94F51AC6CF4C816B818A81D7
:105470000E94DB0D9827892798279E838D83BBCFB9
:105480002D813E813227232732274C816B818A81EF
:105490000E94540DB0CF0E947A0DADCF9A81923008
:1054A00009F095CF8830D9F1893009F463C08B8138
:1054B000823009F1A8F4813009F09DCF8C81E8E7B2
:1054C0008E9FC00111246FEF70E00E94A22E462F24
:1054D00020E060914703809146030E94DB0E8BCF52
:1054E0008330C9F0843009F086CF20E04091480332
:1054F0006D818C81F2CF8C81882309F4A0CF8091BB
:10550000450381608093450360E086950E94F51A0B
:1055100060E08C81A7CF8C81809349036CCF8B8115
:105520008230E1F078F4813009F065CF8091480352
:10553000FFEF8F9FC001112468E770E00E94A22E48
:105540006C8359CF833099F0843009F054CF809127
:1055500046038C83809147038D834DCF8091450313
:1055600080FF03C086958C8346CF80E0FCCF80917E
:105570004903F9CF209145033091460340914703F9
:10558000509148036091490370914A0380914B0305
:1055900090914C030E94B50E2ECF80E18A832BCFD1
:1055A00082E08A8387E50ACF0A811B8110270127C1
:1055B0001027CE0101965C018C80DC01A80DB11D85
:1055C0004D01C80187559E4F8A149B0409F413CFDF
:1055D0000735B2E01B0750F40E94B12FF501848318
:1055E0000F5F1F4FBFEFAB1ABB0AEBCFD50114966D
:1055F0001C92F6CF0A811B81102701271027FE017C
:1056000031964F01AC80A00EB12EB11CC801875558
:105610009E4FA016B10609F4EECE0735F2E01F0743
:1056200028F4D40114966C910E94D52FBFEF8B1AE9
:105630009B0A0F5F1F4FEACF0E94440DDCCE84E02F
:10564000ADCF0A811B81102701271027FE0131965B
:105650005F018C80CF01880D911D4C01C801899696
:105660008A149B0409F4C7CE0038A1E01A0750F44D
:105670000E94B12FF50184830F5F1F4FBFEFAB1A5C
:10568000BB0AECCFD50114961C92F6CF0A811B8180
:10569000102701271027FE0131964F01AC80A00E84
:1056A000B12EB11CC80189960A151B0509F4A3CEB9
:1056B0000038F1E01F0728F4D40114966C910E9481
:1056C000D52FBFEF8B1A9B0A0F5F1F4FEBCF09BD82
:1056D00019BD09B400FEFDCF8091D8008F7D809365
:1056E000D8008091E00082608093E0008091E0002B
:1056F00081FDFCCF0E9471151FCC88E290E00E94D2
:10570000B12F1B821C821D828E8375CE2B303105FA
:1057100008F006CD3ECD2B30310508F0B2CCEACCF6
:105720001092B9008CE08093B8000895B0E0A0E03A
:10573000ECE9FBE20C94BD2EB82EEB010E9449155A
:105740006C01EE24E394F12CC431D10560F025E026
:10575000E22EF12CCF3FDC0731F0CE0164E170E0A6
:105760000E94A22E7B0184EAA82E94E8992E109222
:10577000BC00A092BC000E9449158C018091BC0025
:1057800087FF0DC08091B900887F8830F9F0809143
:10579000B900887F8031D1F00FEF1FEF08C0C8013A
:1057A0000E943A15E816F90648F70EEF1FEFCF3FB3
:1057B000DC07E9F2C6010E943A15C817D907B8F606
:1057C000C801CDB7DEB7EBE00C94D92EB092BB0088
:1057D0009092BC000E9449158C018091BC0087FF0B
:1057E0000AC08091B900887F883111F08034A1F619
:1057F00010E000E0E5CFC8010E943A15E816F9066E
:1058000060F7D3CF0F931F93CF93DF93EB01809378
:10581000BB0084E88093BC000E9449158C018091F4
:10582000BC0087FF11C02091B900287F81E090E083
:10583000283211F490E080E0919581959109DF91F3
:10584000CF911F910F910895CF3FDC0741F3C8011D
:105850000E943A15C817D90710F78EEF9FEFEFCFC8
:105860000F931F93CF93DF93EC0184EC8093BC00E4
:105870000E9449158C018091BC0087FF08C080916F
:10588000BB0090E0DF91CF911F910F910895CF3F22
:10589000DC0789F3C8010E943A15C817D90758F7E1
:1058A0008EEF9FEFEFCF0F931F93CF93DF93EC011A
:1058B00084E88093BC000E9449158C018091BC0053
:1058C00087FF08C08091BB0090E0DF91CF911F91CE
:1058D0000F910895CF3FDC0789F3C8010E943A1564
:1058E000C817D90758F78EEF9FEFEFCFB0E0A0E0D1
:1058F000ECE7FCE20C94C02EC62F6A017901B801D6
:105900000E94962B97FD0CC0B8018C2F0E94022C90
:10591000E601EC0CFD1CCE15DF0511F097FF08C069
:1059200024E92093BC00CDB7DEB7E8E00C94DC2E70
:10593000B80189910E94022CEECFB0E0A0E0E3EA2A
:10594000FCE20C94C02EF82EE62EEA016901B801A3
:105950000E94962B97FD15C0B8018E2D0E94022C37
:1059600097FD0FC0B8018F2D81600E94962BF12CFE
:10597000E12C21E0C21AD108EC14FD04E0F497FFF9
:105980000DC024E92093BC001816190614F490E009
:1059900080E0CDB7DEB7E8E00C94DC2EC8010E94B1
:1059A000302C97FD04C0FE01EE0DFF1D80832FEF0C
:1059B000E21AF20AE1CF97FDE4CFC8010E94532C0E
:1059C00097FDDFCFCC0DDD1D8883DBCF8EE14A9BB9
:1059D00002C08150E1F74A9BFECF08955A9880E2B9
:1059E0008A95F1F75A9A0895FC013BE03A95F1F750
:1059F00098E020E080E031E040E14A95F1F7880F3F
:105A00004A9B02C08160232742E04A95F1F70000DB
:105A100040E14A95F1F7915079F790E19A95F1F7C5
:105A200099B132E03A95F1F7000040E14A95F1F77B
:105A300092FB992790F992272081920F90830895E5
:105A4000A1E0B0E0E6E2FDE20C94C22E19828C01E6
:105A50007C01E60EF11C0E151F0541F481E09981D1
:105A6000911180E02196E6E00C94DE2E0E94E62C57
:105A7000CE0101960E94F42CF80181938F01EBCFA7
:105A8000529A5A9A089552985A9AEA9AE9E6F0E098
:105A900080818F7C808308956150770B91E001C0F5
:105AA000990F6A95EAF720E031E0911108C02223AE
:105AB00091F05A9A80E28A95F1F75A980895492F01
:105AC000482339F05A9A232740E24A95F1F79695F0
:105AD000ECCF5A98F9CF5A98EDCFFF920F931F93BE
